{
  "_format": "hh-sol-artifact-1",
  "contractName": "MetaGallery",
  "sourceName": "contracts/MetaGallery.sol",
  "abi": [
    {
      "inputs": [
        {
          "internalType": "address",
          "name": "initialOwner",
          "type": "address"
        }
      ],
      "stateMutability": "nonpayable",
      "type": "constructor"
    },
    {
      "inputs": [
        {
          "internalType": "address",
          "name": "sender",
          "type": "address"
        },
        {
          "internalType": "uint256",
          "name": "tokenId",
          "type": "uint256"
        },
        {
          "internalType": "address",
          "name": "owner",
          "type": "address"
        }
      ],
      "name": "ERC721IncorrectOwner",
      "type": "error"
    },
    {
      "inputs": [
        {
          "internalType": "address",
          "name": "operator",
          "type": "address"
        },
        {
          "internalType": "uint256",
          "name": "tokenId",
          "type": "uint256"
        }
      ],
      "name": "ERC721InsufficientApproval",
      "type": "error"
    },
    {
      "inputs": [
        {
          "internalType": "address",
          "name": "approver",
          "type": "address"
        }
      ],
      "name": "ERC721InvalidApprover",
      "type": "error"
    },
    {
      "inputs": [
        {
          "internalType": "address",
          "name": "operator",
          "type": "address"
        }
      ],
      "name": "ERC721InvalidOperator",
      "type": "error"
    },
    {
      "inputs": [
        {
          "internalType": "address",
          "name": "owner",
          "type": "address"
        }
      ],
      "name": "ERC721InvalidOwner",
      "type": "error"
    },
    {
      "inputs": [
        {
          "internalType": "address",
          "name": "receiver",
          "type": "address"
        }
      ],
      "name": "ERC721InvalidReceiver",
      "type": "error"
    },
    {
      "inputs": [
        {
          "internalType": "address",
          "name": "sender",
          "type": "address"
        }
      ],
      "name": "ERC721InvalidSender",
      "type": "error"
    },
    {
      "inputs": [
        {
          "internalType": "uint256",
          "name": "tokenId",
          "type": "uint256"
        }
      ],
      "name": "ERC721NonexistentToken",
      "type": "error"
    },
    {
      "inputs": [
        {
          "internalType": "address",
          "name": "owner",
          "type": "address"
        }
      ],
      "name": "OwnableInvalidOwner",
      "type": "error"
    },
    {
      "inputs": [
        {
          "internalType": "address",
          "name": "account",
          "type": "address"
        }
      ],
      "name": "OwnableUnauthorizedAccount",
      "type": "error"
    },
    {
      "anonymous": false,
      "inputs": [
        {
          "indexed": true,
          "internalType": "address",
          "name": "owner",
          "type": "address"
        },
        {
          "indexed": true,
          "internalType": "address",
          "name": "approved",
          "type": "address"
        },
        {
          "indexed": true,
          "internalType": "uint256",
          "name": "tokenId",
          "type": "uint256"
        }
      ],
      "name": "Approval",
      "type": "event"
    },
    {
      "anonymous": false,
      "inputs": [
        {
          "indexed": true,
          "internalType": "address",
          "name": "owner",
          "type": "address"
        },
        {
          "indexed": true,
          "internalType": "address",
          "name": "operator",
          "type": "address"
        },
        {
          "indexed": false,
          "internalType": "bool",
          "name": "approved",
          "type": "bool"
        }
      ],
      "name": "ApprovalForAll",
      "type": "event"
    },
    {
      "anonymous": false,
      "inputs": [
        {
          "indexed": false,
          "internalType": "uint256",
          "name": "_fromTokenId",
          "type": "uint256"
        },
        {
          "indexed": false,
          "internalType": "uint256",
          "name": "_toTokenId",
          "type": "uint256"
        }
      ],
      "name": "BatchMetadataUpdate",
      "type": "event"
    },
    {
      "anonymous": false,
      "inputs": [
        {
          "indexed": false,
          "internalType": "uint256",
          "name": "_tokenId",
          "type": "uint256"
        }
      ],
      "name": "MetadataUpdate",
      "type": "event"
    },
    {
      "anonymous": false,
      "inputs": [
        {
          "indexed": true,
          "internalType": "address",
          "name": "previousOwner",
          "type": "address"
        },
        {
          "indexed": true,
          "internalType": "address",
          "name": "newOwner",
          "type": "address"
        }
      ],
      "name": "OwnershipTransferred",
      "type": "event"
    },
    {
      "anonymous": false,
      "inputs": [
        {
          "indexed": true,
          "internalType": "address",
          "name": "from",
          "type": "address"
        },
        {
          "indexed": true,
          "internalType": "address",
          "name": "to",
          "type": "address"
        },
        {
          "indexed": true,
          "internalType": "uint256",
          "name": "tokenId",
          "type": "uint256"
        }
      ],
      "name": "Transfer",
      "type": "event"
    },
    {
      "inputs": [
        {
          "internalType": "address",
          "name": "to",
          "type": "address"
        },
        {
          "internalType": "uint256",
          "name": "tokenId",
          "type": "uint256"
        }
      ],
      "name": "approve",
      "outputs": [],
      "stateMutability": "nonpayable",
      "type": "function"
    },
    {
      "inputs": [
        {
          "internalType": "address",
          "name": "owner",
          "type": "address"
        }
      ],
      "name": "balanceOf",
      "outputs": [
        {
          "internalType": "uint256",
          "name": "",
          "type": "uint256"
        }
      ],
      "stateMutability": "view",
      "type": "function"
    },
    {
      "inputs": [
        {
          "internalType": "uint256",
          "name": "tokenId",
          "type": "uint256"
        }
      ],
      "name": "getApproved",
      "outputs": [
        {
          "internalType": "address",
          "name": "",
          "type": "address"
        }
      ],
      "stateMutability": "view",
      "type": "function"
    },
    {
      "inputs": [
        {
          "internalType": "address",
          "name": "owner",
          "type": "address"
        },
        {
          "internalType": "address",
          "name": "operator",
          "type": "address"
        }
      ],
      "name": "isApprovedForAll",
      "outputs": [
        {
          "internalType": "bool",
          "name": "",
          "type": "bool"
        }
      ],
      "stateMutability": "view",
      "type": "function"
    },
    {
      "inputs": [
        {
          "internalType": "address",
          "name": "recipient",
          "type": "address"
        },
        {
          "internalType": "string",
          "name": "tokenURI",
          "type": "string"
        }
      ],
      "name": "mintNFT",
      "outputs": [
        {
          "internalType": "uint256",
          "name": "",
          "type": "uint256"
        }
      ],
      "stateMutability": "nonpayable",
      "type": "function"
    },
    {
      "inputs": [],
      "name": "name",
      "outputs": [
        {
          "internalType": "string",
          "name": "",
          "type": "string"
        }
      ],
      "stateMutability": "view",
      "type": "function"
    },
    {
      "inputs": [],
      "name": "owner",
      "outputs": [
        {
          "internalType": "address",
          "name": "",
          "type": "address"
        }
      ],
      "stateMutability": "view",
      "type": "function"
    },
    {
      "inputs": [
        {
          "internalType": "uint256",
          "name": "tokenId",
          "type": "uint256"
        }
      ],
      "name": "ownerOf",
      "outputs": [
        {
          "internalType": "address",
          "name": "",
          "type": "address"
        }
      ],
      "stateMutability": "view",
      "type": "function"
    },
    {
      "inputs": [],
      "name": "renounceOwnership",
      "outputs": [],
      "stateMutability": "nonpayable",
      "type": "function"
    },
    {
      "inputs": [
        {
          "internalType": "address",
          "name": "from",
          "type": "address"
        },
        {
          "internalType": "address",
          "name": "to",
          "type": "address"
        },
        {
          "internalType": "uint256",
          "name": "tokenId",
          "type": "uint256"
        }
      ],
      "name": "safeTransferFrom",
      "outputs": [],
      "stateMutability": "nonpayable",
      "type": "function"
    },
    {
      "inputs": [
        {
          "internalType": "address",
          "name": "from",
          "type": "address"
        },
        {
          "internalType": "address",
          "name": "to",
          "type": "address"
        },
        {
          "internalType": "uint256",
          "name": "tokenId",
          "type": "uint256"
        },
        {
          "internalType": "bytes",
          "name": "data",
          "type": "bytes"
        }
      ],
      "name": "safeTransferFrom",
      "outputs": [],
      "stateMutability": "nonpayable",
      "type": "function"
    },
    {
      "inputs": [
        {
          "internalType": "address",
          "name": "operator",
          "type": "address"
        },
        {
          "internalType": "bool",
          "name": "approved",
          "type": "bool"
        }
      ],
      "name": "setApprovalForAll",
      "outputs": [],
      "stateMutability": "nonpayable",
      "type": "function"
    },
    {
      "inputs": [
        {
          "internalType": "bytes4",
          "name": "interfaceId",
          "type": "bytes4"
        }
      ],
      "name": "supportsInterface",
      "outputs": [
        {
          "internalType": "bool",
          "name": "",
          "type": "bool"
        }
      ],
      "stateMutability": "view",
      "type": "function"
    },
    {
      "inputs": [],
      "name": "symbol",
      "outputs": [
        {
          "internalType": "string",
          "name": "",
          "type": "string"
        }
      ],
      "stateMutability": "view",
      "type": "function"
    },
    {
      "inputs": [
        {
          "internalType": "uint256",
          "name": "tokenId",
          "type": "uint256"
        }
      ],
      "name": "tokenURI",
      "outputs": [
        {
          "internalType": "string",
          "name": "",
          "type": "string"
        }
      ],
      "stateMutability": "view",
      "type": "function"
    },
    {
      "inputs": [
        {
          "internalType": "address",
          "name": "from",
          "type": "address"
        },
        {
          "internalType": "address",
          "name": "to",
          "type": "address"
        },
        {
          "internalType": "uint256",
          "name": "tokenId",
          "type": "uint256"
        }
      ],
      "name": "transferFrom",
      "outputs": [],
      "stateMutability": "nonpayable",
      "type": "function"
    },
    {
      "inputs": [
        {
          "internalType": "address",
          "name": "newOwner",
          "type": "address"
        }
      ],
      "name": "transferOwnership",
      "outputs": [],
      "stateMutability": "nonpayable",
      "type": "function"
    },
    {
      "inputs": [
        {
          "internalType": "uint256",
          "name": "tokenId",
          "type": "uint256"
        },
        {
          "internalType": "string",
          "name": "newTokenURI",
          "type": "string"
        }
      ],
      "name": "updateTokenURI",
      "outputs": [],
      "stateMutability": "nonpayable",
      "type": "function"
    }
  ],
  "bytecode": "0x608060405260006008553480156200001657600080fd5b5060405162002d2238038062002d2283398181016040528101906200003c91906200028d565b806040518060400160405280600b81526020017f4d65746147616c6c6572790000000000000000000000000000000000000000008152506040518060400160405280600381526020017f4d544700000000000000000000000000000000000000000000000000000000008152508160009081620000ba919062000539565b508060019081620000cc919062000539565b505050600073ffffffffffffffffffffffffffffffffffffffff168173ffffffffffffffffffffffffffffffffffffffff1603620001445760006040517f1e4fbdf70000000000000000000000000000000000000000000000000000000081526004016200013b919062000631565b60405180910390fd5b62000155816200015d60201b60201c565b50506200064e565b6000600760009054906101000a900473ffffffffffffffffffffffffffffffffffffffff16905081600760006101000a81548173ffffffffffffffffffffffffffffffffffffffff021916908373ffffffffffffffffffffffffffffffffffffffff1602179055508173ffffffffffffffffffffffffffffffffffffffff168173ffffffffffffffffffffffffffffffffffffffff167f8be0079c531659141344cd1fd0a4f28419497f9722a3daafe3b4186f6b6457e060405160405180910390a35050565b600080fd5b600073ffffffffffffffffffffffffffffffffffffffff82169050919050565b6000620002558262000228565b9050919050565b620002678162000248565b81146200027357600080fd5b50565b60008151905062000287816200025c565b92915050565b600060208284031215620002a657620002a562000223565b5b6000620002b68482850162000276565b91505092915050565b600081519050919050565b7f4e487b7100000000000000000000000000000000000000000000000000000000600052604160045260246000fd5b7f4e487b7100000000000000000000000000000000000000000000000000000000600052602260045260246000fd5b600060028204905060018216806200034157607f821691505b602082108103620003575762000356620002f9565b5b50919050565b60008190508160005260206000209050919050565b60006020601f8301049050919050565b600082821b905092915050565b600060088302620003c17fffffffffffffffffffffffffffffffffffffffffffffffffffffffffffffffff8262000382565b620003cd868362000382565b95508019841693508086168417925050509392505050565b6000819050919050565b6000819050919050565b60006200041a620004146200040e84620003e5565b620003ef565b620003e5565b9050919050565b6000819050919050565b6200043683620003f9565b6200044e620004458262000421565b8484546200038f565b825550505050565b600090565b6200046562000456565b620004728184846200042b565b505050565b5b818110156200049a576200048e6000826200045b565b60018101905062000478565b5050565b601f821115620004e957620004b3816200035d565b620004be8462000372565b81016020851015620004ce578190505b620004e6620004dd8562000372565b83018262000477565b50505b505050565b600082821c905092915050565b60006200050e60001984600802620004ee565b1980831691505092915050565b6000620005298383620004fb565b9150826002028217905092915050565b6200054482620002bf565b67ffffffffffffffff81111562000560576200055f620002ca565b5b6200056c825462000328565b620005798282856200049e565b600060209050601f831160018114620005b157600084156200059c578287015190505b620005a885826200051b565b86555062000618565b601f198416620005c1866200035d565b60005b82811015620005eb57848901518255600182019150602085019450602081019050620005c4565b868310156200060b578489015162000607601f891682620004fb565b8355505b6001600288020188555050505b505050505050565b6200062b8162000248565b82525050565b600060208201905062000648600083018462000620565b92915050565b6126c4806200065e6000396000f3fe608060405234801561001057600080fd5b50600436106101165760003560e01c8063715018a6116100a2578063b88d4fde11610071578063b88d4fde146102cb578063c87b56dd146102e7578063e985e9c514610317578063eacabe1414610347578063f2fde38b1461037757610116565b8063715018a6146102695780638da5cb5b1461027357806395d89b4114610291578063a22cb465146102af57610116565b806318e97fd1116100e957806318e97fd1146101b557806323b872dd146101d157806342842e0e146101ed5780636352211e1461020957806370a082311461023957610116565b806301ffc9a71461011b57806306fdde031461014b578063081812fc14610169578063095ea7b314610199575b600080fd5b61013560048036038101906101309190611ad4565b610393565b6040516101429190611b1c565b60405180910390f35b6101536103f4565b6040516101609190611bc7565b60405180910390f35b610183600480360381019061017e9190611c1f565b610486565b6040516101909190611c8d565b60405180910390f35b6101b360048036038101906101ae9190611cd4565b6104a2565b005b6101cf60048036038101906101ca9190611e49565b6104b8565b005b6101eb60048036038101906101e69190611ea5565b6104ce565b005b61020760048036038101906102029190611ea5565b6105d0565b005b610223600480360381019061021e9190611c1f565b6105f0565b6040516102309190611c8d565b60405180910390f35b610253600480360381019061024e9190611ef8565b610602565b6040516102609190611f34565b60405180910390f35b6102716106bc565b005b61027b6106d0565b6040516102889190611c8d565b60405180910390f35b6102996106fa565b6040516102a69190611bc7565b60405180910390f35b6102c960048036038101906102c49190611f7b565b61078c565b005b6102e560048036038101906102e0919061205c565b6107a2565b005b61030160048036038101906102fc9190611c1f565b6107bf565b60405161030e9190611bc7565b60405180910390f35b610331600480360381019061032c91906120df565b6108d2565b60405161033e9190611b1c565b60405180910390f35b610361600480360381019061035c919061211f565b610966565b60405161036e9190611f34565b60405180910390f35b610391600480360381019061038c9190611ef8565b6109ad565b005b6000634906490660e01b7bffffffffffffffffffffffffffffffffffffffffffffffffffffffff1916827bffffffffffffffffffffffffffffffffffffffffffffffffffffffff191614806103ed57506103ec82610a33565b5b9050919050565b606060008054610403906121aa565b80601f016020809104026020016040519081016040528092919081815260200182805461042f906121aa565b801561047c5780601f106104515761010080835404028352916020019161047c565b820191906000526020600020905b81548152906001019060200180831161045f57829003601f168201915b5050505050905090565b600061049182610b15565b5061049b82610b9d565b9050919050565b6104b482826104af610bda565b610be2565b5050565b6104c0610bf4565b6104ca8282610c7b565b5050565b600073ffffffffffffffffffffffffffffffffffffffff168273ffffffffffffffffffffffffffffffffffffffff16036105405760006040517f64a0ae920000000000000000000000000000000000000000000000000000000081526004016105379190611c8d565b60405180910390fd5b6000610554838361054f610bda565b610cd7565b90508373ffffffffffffffffffffffffffffffffffffffff168173ffffffffffffffffffffffffffffffffffffffff16146105ca578382826040517f64283d7b0000000000000000000000000000000000000000000000000000000081526004016105c1939291906121db565b60405180910390fd5b50505050565b6105eb838383604051806020016040528060008152506107a2565b505050565b60006105fb82610b15565b9050919050565b60008073ffffffffffffffffffffffffffffffffffffffff168273ffffffffffffffffffffffffffffffffffffffff16036106755760006040517f89c62b6400000000000000000000000000000000000000000000000000000000815260040161066c9190611c8d565b60405180910390fd5b600360008373ffffffffffffffffffffffffffffffffffffffff1673ffffffffffffffffffffffffffffffffffffffff168152602001908152602001600020549050919050565b6106c4610bf4565b6106ce6000610ef1565b565b6000600760009054906101000a900473ffffffffffffffffffffffffffffffffffffffff16905090565b606060018054610709906121aa565b80601f0160208091040260200160405190810160405280929190818152602001828054610735906121aa565b80156107825780601f1061075757610100808354040283529160200191610782565b820191906000526020600020905b81548152906001019060200180831161076557829003601f168201915b5050505050905090565b61079e610797610bda565b8383610fb7565b5050565b6107ad8484846104ce565b6107b984848484611126565b50505050565b60606107ca82610b15565b5060006006600084815260200190815260200160002080546107eb906121aa565b80601f0160208091040260200160405190810160405280929190818152602001828054610817906121aa565b80156108645780601f1061083957610100808354040283529160200191610864565b820191906000526020600020905b81548152906001019060200180831161084757829003601f168201915b5050505050905060006108756112dd565b9050600081510361088a5781925050506108cd565b6000825111156108bf5780826040516020016108a792919061224e565b604051602081830303815290604052925050506108cd565b6108c8846112f4565b925050505b919050565b6000600560008473ffffffffffffffffffffffffffffffffffffffff1673ffffffffffffffffffffffffffffffffffffffff16815260200190815260200160002060008373ffffffffffffffffffffffffffffffffffffffff1673ffffffffffffffffffffffffffffffffffffffff16815260200190815260200160002060009054906101000a900460ff16905092915050565b6000610970610bf4565b60016008600082825461098391906122a1565b925050819055506109968360085461135d565b6109a260085483610c7b565b600854905092915050565b6109b5610bf4565b600073ffffffffffffffffffffffffffffffffffffffff168173ffffffffffffffffffffffffffffffffffffffff1603610a275760006040517f1e4fbdf7000000000000000000000000000000000000000000000000000000008152600401610a1e9190611c8d565b60405180910390fd5b610a3081610ef1565b50565b60007f80ac58cd000000000000000000000000000000000000000000000000000000007bffffffffffffffffffffffffffffffffffffffffffffffffffffffff1916827bffffffffffffffffffffffffffffffffffffffffffffffffffffffff19161480610afe57507f5b5e139f000000000000000000000000000000000000000000000000000000007bffffffffffffffffffffffffffffffffffffffffffffffffffffffff1916827bffffffffffffffffffffffffffffffffffffffffffffffffffffffff1916145b80610b0e5750610b0d82611456565b5b9050919050565b600080610b21836114c0565b9050600073ffffffffffffffffffffffffffffffffffffffff168173ffffffffffffffffffffffffffffffffffffffff1603610b9457826040517f7e273289000000000000000000000000000000000000000000000000000000008152600401610b8b9190611f34565b60405180910390fd5b80915050919050565b60006004600083815260200190815260200160002060009054906101000a900473ffffffffffffffffffffffffffffffffffffffff169050919050565b600033905090565b610bef83838360016114fd565b505050565b610bfc610bda565b73ffffffffffffffffffffffffffffffffffffffff16610c1a6106d0565b73ffffffffffffffffffffffffffffffffffffffff1614610c7957610c3d610bda565b6040517f118cdaa7000000000000000000000000000000000000000000000000000000008152600401610c709190611c8d565b60405180910390fd5b565b80600660008481526020019081526020016000209081610c9b9190612481565b507ff8e1a15aba9398e019f0b49df1a4fde98ee17ae345cb5f6b5e2c27f5033e8ce782604051610ccb9190611f34565b60405180910390a15050565b600080610ce3846114c0565b9050600073ffffffffffffffffffffffffffffffffffffffff168373ffffffffffffffffffffffffffffffffffffffff1614610d2557610d248184866116c2565b5b600073ffffffffffffffffffffffffffffffffffffffff168173ffffffffffffffffffffffffffffffffffffffff1614610db657610d676000856000806114fd565b6001600360008373ffffffffffffffffffffffffffffffffffffffff1673ffffffffffffffffffffffffffffffffffffffff168152602001908152602001600020600082825403925050819055505b600073ffffffffffffffffffffffffffffffffffffffff168573ffffffffffffffffffffffffffffffffffffffff1614610e39576001600360008773ffffffffffffffffffffffffffffffffffffffff1673ffffffffffffffffffffffffffffffffffffffff168152602001908152602001600020600082825401925050819055505b846002600086815260200190815260200160002060006101000a81548173ffffffffffffffffffffffffffffffffffffffff021916908373ffffffffffffffffffffffffffffffffffffffff160217905550838573ffffffffffffffffffffffffffffffffffffffff168273ffffffffffffffffffffffffffffffffffffffff167fddf252ad1be2c89b69c2b068fc378daa952ba7f163c4a11628f55a4df523b3ef60405160405180910390a4809150509392505050565b6000600760009054906101000a900473ffffffffffffffffffffffffffffffffffffffff16905081600760006101000a81548173ffffffffffffffffffffffffffffffffffffffff021916908373ffffffffffffffffffffffffffffffffffffffff1602179055508173ffffffffffffffffffffffffffffffffffffffff168173ffffffffffffffffffffffffffffffffffffffff167f8be0079c531659141344cd1fd0a4f28419497f9722a3daafe3b4186f6b6457e060405160405180910390a35050565b600073ffffffffffffffffffffffffffffffffffffffff168273ffffffffffffffffffffffffffffffffffffffff160361102857816040517f5b08ba1800000000000000000000000000000000000000000000000000000000815260040161101f9190611c8d565b60405180910390fd5b80600560008573ffffffffffffffffffffffffffffffffffffffff1673ffffffffffffffffffffffffffffffffffffffff16815260200190815260200160002060008473ffffffffffffffffffffffffffffffffffffffff1673ffffffffffffffffffffffffffffffffffffffff16815260200190815260200160002060006101000a81548160ff0219169083151502179055508173ffffffffffffffffffffffffffffffffffffffff168373ffffffffffffffffffffffffffffffffffffffff167f17307eab39ab6107e8899845ad3d59bd9653f200f220920489ca2b5937696c31836040516111199190611b1c565b60405180910390a3505050565b60008373ffffffffffffffffffffffffffffffffffffffff163b11156112d7578273ffffffffffffffffffffffffffffffffffffffff1663150b7a0261116a610bda565b8685856040518563ffffffff1660e01b815260040161118c94939291906125a8565b6020604051808303816000875af19250505080156111c857506040513d601f19601f820116820180604052508101906111c59190612609565b60015b61124c573d80600081146111f8576040519150601f19603f3d011682016040523d82523d6000602084013e6111fd565b606091505b50600081510361124457836040517f64a0ae9200000000000000000000000000000000000000000000000000000000815260040161123b9190611c8d565b60405180910390fd5b805181602001fd5b63150b7a0260e01b7bffffffffffffffffffffffffffffffffffffffffffffffffffffffff1916817bffffffffffffffffffffffffffffffffffffffffffffffffffffffff1916146112d557836040517f64a0ae920000000000000000000000000000000000000000000000000000000081526004016112cc9190611c8d565b60405180910390fd5b505b50505050565b606060405180602001604052806000815250905090565b60606112ff82610b15565b50600061130a6112dd565b9050600081511161132a5760405180602001604052806000815250611355565b8061133484611786565b60405160200161134592919061224e565b6040516020818303038152906040525b915050919050565b600073ffffffffffffffffffffffffffffffffffffffff168273ffffffffffffffffffffffffffffffffffffffff16036113cf5760006040517f64a0ae920000000000000000000000000000000000000000000000000000000081526004016113c69190611c8d565b60405180910390fd5b60006113dd83836000610cd7565b9050600073ffffffffffffffffffffffffffffffffffffffff168173ffffffffffffffffffffffffffffffffffffffff16146114515760006040517f73c6ac6e0000000000000000000000000000000000000000000000000000000081526004016114489190611c8d565b60405180910390fd5b505050565b60007f01ffc9a7000000000000000000000000000000000000000000000000000000007bffffffffffffffffffffffffffffffffffffffffffffffffffffffff1916827bffffffffffffffffffffffffffffffffffffffffffffffffffffffff1916149050919050565b60006002600083815260200190815260200160002060009054906101000a900473ffffffffffffffffffffffffffffffffffffffff169050919050565b80806115365750600073ffffffffffffffffffffffffffffffffffffffff168273ffffffffffffffffffffffffffffffffffffffff1614155b1561166a57600061154684610b15565b9050600073ffffffffffffffffffffffffffffffffffffffff168373ffffffffffffffffffffffffffffffffffffffff16141580156115b157508273ffffffffffffffffffffffffffffffffffffffff168173ffffffffffffffffffffffffffffffffffffffff1614155b80156115c457506115c281846108d2565b155b1561160657826040517fa9fbf51f0000000000000000000000000000000000000000000000000000000081526004016115fd9190611c8d565b60405180910390fd5b811561166857838573ffffffffffffffffffffffffffffffffffffffff168273ffffffffffffffffffffffffffffffffffffffff167f8c5be1e5ebec7d5bd14f71427d1e84f3dd0314c0f7b2291e5b200ac8c7c3b92560405160405180910390a45b505b836004600085815260200190815260200160002060006101000a81548173ffffffffffffffffffffffffffffffffffffffff021916908373ffffffffffffffffffffffffffffffffffffffff16021790555050505050565b6116cd838383611854565b61178157600073ffffffffffffffffffffffffffffffffffffffff168373ffffffffffffffffffffffffffffffffffffffff160361174257806040517f7e2732890000000000000000000000000000000000000000000000000000000081526004016117399190611f34565b60405180910390fd5b81816040517f177e802f000000000000000000000000000000000000000000000000000000008152600401611778929190612636565b60405180910390fd5b505050565b60606000600161179584611915565b01905060008167ffffffffffffffff8111156117b4576117b3611d1e565b5b6040519080825280601f01601f1916602001820160405280156117e65781602001600182028036833780820191505090505b509050600082602001820190505b600115611849578080600190039150507f3031323334353637383961626364656600000000000000000000000000000000600a86061a8153600a858161183d5761183c61265f565b5b049450600085036117f4575b819350505050919050565b60008073ffffffffffffffffffffffffffffffffffffffff168373ffffffffffffffffffffffffffffffffffffffff161415801561190c57508273ffffffffffffffffffffffffffffffffffffffff168473ffffffffffffffffffffffffffffffffffffffff1614806118cd57506118cc84846108d2565b5b8061190b57508273ffffffffffffffffffffffffffffffffffffffff166118f383610b9d565b73ffffffffffffffffffffffffffffffffffffffff16145b5b90509392505050565b600080600090507a184f03e93ff9f4daa797ed6e38ed64bf6a1f0100000000000000008310611973577a184f03e93ff9f4daa797ed6e38ed64bf6a1f01000000000000000083816119695761196861265f565b5b0492506040810190505b6d04ee2d6d415b85acef810000000083106119b0576d04ee2d6d415b85acef810000000083816119a6576119a561265f565b5b0492506020810190505b662386f26fc1000083106119df57662386f26fc1000083816119d5576119d461265f565b5b0492506010810190505b6305f5e1008310611a08576305f5e10083816119fe576119fd61265f565b5b0492506008810190505b6127108310611a2d576127108381611a2357611a2261265f565b5b0492506004810190505b60648310611a505760648381611a4657611a4561265f565b5b0492506002810190505b600a8310611a5f576001810190505b80915050919050565b6000604051905090565b600080fd5b600080fd5b60007fffffffff0000000000000000000000000000000000000000000000000000000082169050919050565b611ab181611a7c565b8114611abc57600080fd5b50565b600081359050611ace81611aa8565b92915050565b600060208284031215611aea57611ae9611a72565b5b6000611af884828501611abf565b91505092915050565b60008115159050919050565b611b1681611b01565b82525050565b6000602082019050611b316000830184611b0d565b92915050565b600081519050919050565b600082825260208201905092915050565b60005b83811015611b71578082015181840152602081019050611b56565b60008484015250505050565b6000601f19601f8301169050919050565b6000611b9982611b37565b611ba38185611b42565b9350611bb3818560208601611b53565b611bbc81611b7d565b840191505092915050565b60006020820190508181036000830152611be18184611b8e565b905092915050565b6000819050919050565b611bfc81611be9565b8114611c0757600080fd5b50565b600081359050611c1981611bf3565b92915050565b600060208284031215611c3557611c34611a72565b5b6000611c4384828501611c0a565b91505092915050565b600073ffffffffffffffffffffffffffffffffffffffff82169050919050565b6000611c7782611c4c565b9050919050565b611c8781611c6c565b82525050565b6000602082019050611ca26000830184611c7e565b92915050565b611cb181611c6c565b8114611cbc57600080fd5b50565b600081359050611cce81611ca8565b92915050565b60008060408385031215611ceb57611cea611a72565b5b6000611cf985828601611cbf565b9250506020611d0a85828601611c0a565b9150509250929050565b600080fd5b600080fd5b7f4e487b7100000000000000000000000000000000000000000000000000000000600052604160045260246000fd5b611d5682611b7d565b810181811067ffffffffffffffff82111715611d7557611d74611d1e565b5b80604052505050565b6000611d88611a68565b9050611d948282611d4d565b919050565b600067ffffffffffffffff821115611db457611db3611d1e565b5b611dbd82611b7d565b9050602081019050919050565b82818337600083830152505050565b6000611dec611de784611d99565b611d7e565b905082815260208101848484011115611e0857611e07611d19565b5b611e13848285611dca565b509392505050565b600082601f830112611e3057611e2f611d14565b5b8135611e40848260208601611dd9565b91505092915050565b60008060408385031215611e6057611e5f611a72565b5b6000611e6e85828601611c0a565b925050602083013567ffffffffffffffff811115611e8f57611e8e611a77565b5b611e9b85828601611e1b565b9150509250929050565b600080600060608486031215611ebe57611ebd611a72565b5b6000611ecc86828701611cbf565b9350506020611edd86828701611cbf565b9250506040611eee86828701611c0a565b9150509250925092565b600060208284031215611f0e57611f0d611a72565b5b6000611f1c84828501611cbf565b91505092915050565b611f2e81611be9565b82525050565b6000602082019050611f496000830184611f25565b92915050565b611f5881611b01565b8114611f6357600080fd5b50565b600081359050611f7581611f4f565b92915050565b60008060408385031215611f9257611f91611a72565b5b6000611fa085828601611cbf565b9250506020611fb185828601611f66565b9150509250929050565b600067ffffffffffffffff821115611fd657611fd5611d1e565b5b611fdf82611b7d565b9050602081019050919050565b6000611fff611ffa84611fbb565b611d7e565b90508281526020810184848401111561201b5761201a611d19565b5b612026848285611dca565b509392505050565b600082601f83011261204357612042611d14565b5b8135612053848260208601611fec565b91505092915050565b6000806000806080858703121561207657612075611a72565b5b600061208487828801611cbf565b945050602061209587828801611cbf565b93505060406120a687828801611c0a565b925050606085013567ffffffffffffffff8111156120c7576120c6611a77565b5b6120d38782880161202e565b91505092959194509250565b600080604083850312156120f6576120f5611a72565b5b600061210485828601611cbf565b925050602061211585828601611cbf565b9150509250929050565b6000806040838503121561213657612135611a72565b5b600061214485828601611cbf565b925050602083013567ffffffffffffffff81111561216557612164611a77565b5b61217185828601611e1b565b9150509250929050565b7f4e487b7100000000000000000000000000000000000000000000000000000000600052602260045260246000fd5b600060028204905060018216806121c257607f821691505b6020821081036121d5576121d461217b565b5b50919050565b60006060820190506121f06000830186611c7e565b6121fd6020830185611f25565b61220a6040830184611c7e565b949350505050565b600081905092915050565b600061222882611b37565b6122328185612212565b9350612242818560208601611b53565b80840191505092915050565b600061225a828561221d565b9150612266828461221d565b91508190509392505050565b7f4e487b7100000000000000000000000000000000000000000000000000000000600052601160045260246000fd5b60006122ac82611be9565b91506122b783611be9565b92508282019050808211156122cf576122ce612272565b5b92915050565b60008190508160005260206000209050919050565b60006020601f8301049050919050565b600082821b905092915050565b6000600883026123377fffffffffffffffffffffffffffffffffffffffffffffffffffffffffffffffff826122fa565b61234186836122fa565b95508019841693508086168417925050509392505050565b6000819050919050565b600061237e61237961237484611be9565b612359565b611be9565b9050919050565b6000819050919050565b61239883612363565b6123ac6123a482612385565b848454612307565b825550505050565b600090565b6123c16123b4565b6123cc81848461238f565b505050565b5b818110156123f0576123e56000826123b9565b6001810190506123d2565b5050565b601f82111561243557612406816122d5565b61240f846122ea565b8101602085101561241e578190505b61243261242a856122ea565b8301826123d1565b50505b505050565b600082821c905092915050565b60006124586000198460080261243a565b1980831691505092915050565b60006124718383612447565b9150826002028217905092915050565b61248a82611b37565b67ffffffffffffffff8111156124a3576124a2611d1e565b5b6124ad82546121aa565b6124b88282856123f4565b600060209050601f8311600181146124eb57600084156124d9578287015190505b6124e38582612465565b86555061254b565b601f1984166124f9866122d5565b60005b82811015612521578489015182556001820191506020850194506020810190506124fc565b8683101561253e578489015161253a601f891682612447565b8355505b6001600288020188555050505b505050505050565b600081519050919050565b600082825260208201905092915050565b600061257a82612553565b612584818561255e565b9350612594818560208601611b53565b61259d81611b7d565b840191505092915050565b60006080820190506125bd6000830187611c7e565b6125ca6020830186611c7e565b6125d76040830185611f25565b81810360608301526125e9818461256f565b905095945050505050565b60008151905061260381611aa8565b92915050565b60006020828403121561261f5761261e611a72565b5b600061262d848285016125f4565b91505092915050565b600060408201905061264b6000830185611c7e565b6126586020830184611f25565b9392505050565b7f4e487b7100000000000000000000000000000000000000000000000000000000600052601260045260246000fdfea26469706673582212205aac0cd87003a5c56c564f93570c14935f8f666b77a1af9c7bdee9b94876594464736f6c63430008140033",
  "linkReferences": {},
  "deployedLinkReferences": {}
}